:020000040000FA
:040000005BEF00F0C2
:100008004A82FACF40F0FBCF41F0D9CF42F0DACFA5
:1000180043F0F3CF44F0F4CF45F0F6CF46F0F7CFF6
:1000280047F0F8CF48F0F5CF49F0A0A61EEF00F052
:1000380020EF00F035EF00F0A1A625EF00F027EF44
:1000480000F035EF00F002D833EF00F00500FA6E4B
:100058002B50FD6E2C50FE6EFF6AFA50120045EFD1
:1000680000F09DA63AEF00F03CEF00F045EF00F0FD
:100078009EA641EF00F043EF00F045EF00F027EFB8
:1000880000F049C0F5FF48C0F8FF47C0F7FF46C079
:10009800F6FF45C0F4FF44C0F3FF43C0DAFF42C097
:1000A800D9FF41C0FBFF40C0FAFF4A921100BBEFE5
:0200B8000CF04A
:1010000000421BE21AF01AF8105C12381BA2148C72
:101010001B841B7C1B741B6C1B641B5C1B2E1BDE4C
:101020001653797374656D20537461727465640D21
:101030000044617465203A20000047EC0DF0F28E08
:10104000F28CF28C210E0001796F100E7A6F000E77
:101050007C6F0F0E7B6FA1EC0BF0080E0001846F0C
:10106000050E856FA20E52EC0DF0850EE82EFED710
:1010700000F0080E0001846F060E856FA60E52EC7C
:101080000DF0850EE82EFED700F0080E0001846FEB
:10109000A20E17EC0DF02F6E080E0001846FA60E45
:1010A00017EC0DF02E6E07EC0BF020EE60F0050E45
:1010B000EBCFDBFFE806FCE2DBEC08F09E0EFFEC7A
:1010C0000CF02D6E000E0001816F2DC082F0700EAD
:1010D000CBEC0AF00B0E00018B6F260E8A6F5D0EB3
:1010E000E82EFED78A2FFCD78B2FFAD700F000F01E
:1010F00053EF08F05BEF00F067EC0DF00009D8B497
:1011000084EF08F086EF08F0C0EF08F094EF08F0E5
:10111000C6EC0DF0DAEF08F0C2EC0DF0DAEF08F0F3
:10112000BAEC0DF0DAEF08F013C03AF014C03BF05F
:1011300002D8A4EF08F00500FA6E0750FD6E0850C3
:10114000FE6EFF6AFA5012003C6E3D6A3D50000A86
:10115000D8B4ADEF08F090EF08F03C50010AD8B4D5
:1011600090EF08F0030AD8B488EF08F0010AD8B469
:101170008CEF08F0070AD8B490EF08F090EF08F071
:1011800024901EC0D9FF1FC0DAFF1E4A1F2ADF505D
:10119000CAEC0DF02006D8A0210620502110D8A4BA
:1011A000D4EF08F0D6EF08F0D9EF08F0060EDAEF2A
:1011B00008F0030E12002A380F0B300F0001666F83
:1011C0002A500F0B300F676F2D0E686F29380F0BE9
:1011D000300F696F29500F0B300F6A6F2D0E6B6F38
:1011E00028380F0B300F6C6F28500F0B300F6D6FBE
:1011F0002F0E6E6F25380F0B300F6F6F25500F0BB2
:10120000300F706F2D0E716F26380F0B300F726F0D
:1012100026500F0B300F736F2D0E746F27380F0B86
:10122000300F756F27500F0B300F766F0D0E776FE5
:10123000310E796F100E7A6F000E7C6F080E7B6F87
:10124000A1EC0BF0660E0001796F000E7A6F000EB4
:101250007C6F120E7B6FA1EC0BF01200E5EC0DF031
:101260001EC0D9FF1FC0DAFFDF6E1E4A1F2A2006EC
:10127000D8A0210620502110D8B441EF09F043EF47
:1012800009F048EF09F0D1EC0DF0050E7FEF09F001
:10129000248653EF09F0AEEC0DF07FEF09F0B2ECCD
:1012A0000DF07FEF09F00DC03AF00EC03BF002D810
:1012B00063EF09F00500FA6E0150FD6E0250FE6EFC
:1012C000FF6AFA5012003C6E3D6A3D50000AD8B4E5
:1012D0006CEF09F04FEF09F03C50010AD8B44FEF22
:1012E00009F0030AD8B44BEF09F0010AD8B44BEF68
:1012F00009F0070AD8B44FEF09F04FEF09F01200D8
:1013000000017A6F010E00017B6F24B48AEF09F0AF
:101310008CEF09F0CFEF09F07AC01DF024922484FD
:1013200024900E0E226E010E1C6EF40E1B6E24868F
:10133000D60E016E1B0E026E000E0D6E000E0E6EAE
:10134000D60E036E1B0E046E000E0F6E000E106E96
:10135000D60E056E1B0E066E000E116E000E126E7E
:10136000D60E076E1B0E086E000E136E000E146E66
:10137000D20E096E1B0E0A6E000E156E000E166E52
:101380009C0E786F1B0E796F92EC0DF0DFEC0DF078
:10139000DDEC0CF0D7EC0DF0000E00017B6F7B5103
:1013A00012000001826F000E0001836F0001825164
:1013B00080EC09F00009D8B4E0EF09F0E2EF09F0A1
:1013C000D6EF09F01E0E00017D6F190E7E6F830EA1
:1013D0007F6F000E806F23EC0DF0810E0001786F9F
:1013E000000E796F000E7B6F010E7A6FCCEC0CF063
:1013F000000E00017D6F000E7E6F000E7F6F000EED
:10140000806F2FEC0DF0AAEC0DF04CEC0CF0E80620
:10141000D8B40DEF0AF00FEF0AF005EF0AF0000163
:101420008351120000017C6F000178517911D8B40A
:101430001CEF0AF01EEF0AF038EF0AF07C51020DA3
:10144000010EF324D96E000EF420DA6E78C0DEFFB0
:1014500079C0DDFF7C51020D0D0EF324D96E000E14
:10146000F420DA6E7AC0DEFF7BC0DDFF50EF0AF0B9
:101470007C51020D010EF324D96E000EF420DA6EB9
:10148000D60EDE6E1B0EDD6E7C51020D0D0EF324AA
:10149000D96E000EF420DA6E000EDE6E000EDD6EE8
:1014A0001200248661EF0AF0BEEC0DF08DEF0AF019
:1014B000E3EC0DF0030E8DEF0AF0BAEC0DF08DEFBA
:1014C0000AF00DC03AF00EC03BF002D871EF0AF0FE
:1014D0000500FA6E0150FD6E0250FE6EFF6AFA5072
:1014E00012003C6E3D6A3D50000AD8B47AEF0AF013
:1014F0005DEF0AF03C50010AD8B45DEF0AF0030A30
:10150000D8B454EF0AF0010AD8B454EF0AF0070A2D
:10151000D8B458EF0AF05DEF0AF01200356E315082
:101520003210D8B496EF0AF098EF0AF0B2EF0AF052
:101530003550020D010EF324D96E000EF420DA6E40
:1015400031C0DEFF32C0DDFF3550020D0D0EF32439
:10155000D96E000EF420DA6E33C0DEFF34C0DDFF3A
:10156000CAEF0AF03550020D010EF324D96E000EB9
:10157000F420DA6ED60EDE6E1B0EDD6E3550020DD7
:101580000D0EF324D96E000EF420DA6E000EDE6E1E
:10159000000EDD6E12000001836F0001835180ECAC
:1015A00009F00009D8B4D7EF0AF0D9EF0AF0CDEF6F
:1015B0000AF0C60E00017D6F180E7E6F820E7F6FDF
:1015C000000E806F23EC0DF0810E0001786F000E8D
:1015D000796F000E7B6F010E7A6FCCEC0CF0000E71
:1015E00000017D6F000E7E6F000E7F6F000E806F1A
:1015F0002FEC0DF0AAEC0DF04CEC0CF0E806D8B492
:1016000004EF0BF006EF0BF0FCEF0AF01200000EF7
:101610000001816FD00ED1EC09F0276E010E0001A0
:10162000816FD00ED1EC09F0266E020E0001816FA1
:10163000D00ED1EC09F0256E040E0001816FD00EA2
:10164000D1EC09F02A6E050E0001816FD00ED1ECAD
:1016500009F0296E060E0001816FD00ED1EC09F061
:10166000286E20EE25F000EE84F0050EDBCFEBFFB8
:10167000E806FCE21200E1EC0DF024A042EF0BF0D2
:1016800044EF0BF050EF0BF067EC0DF00009D8B40D
:101690004CEF0BF04EEF0BF050EF0BF00F0E226EF5
:1016A0002250020D010EF324F66E100EF420F76E98
:1016B000F86A000EF8220900F5CF3EF00900F5CFD8
:1016C0003FF002D86DEF0BF00500FA6E3E50FD6E54
:1016D0003F50FE6EFF6AFA501200226E12002490F4
:1016E000020E236E7CEF0BF0BEEC0DF0A0EF0BF0C2
:1016F000BAEC0DF0A0EF0BF011C03AF012C03BF0C5
:1017000002D88CEF0BF00500FA6E0550FD6E065006
:10171000FE6EFF6AFA5012003C6E3D6A3D50000AB0
:10172000D8B495EF0BF078EF0BF03C50020AD8B428
:1017300074EF0BF0010AD8B474EF0BF078EF0BF0F4
:101740001200000E00017E6F000E7D6F000E7E6F96
:10175000000E7D6FC4EF0BF079C0F6FF7AC0F7FF83
:10176000000EF86E0F0EF76403D00800F55005D098
:10177000F6CFE9FFF7CFEAFFEF500BEC0DF00001D9
:10178000794B7A2B7D4B7E2B7B517D5D7C517E5935
:10179000D8A0CDEF0BF0CFEF0BF0ACEF0BF01200B9
:1017A000080EB86E900EAB6E240EAC6EA00EAF6E2F
:1017B000010EB06E000E0001786F000E796F88EC9C
:1017C0000DF0000E0001786F000E796F83EC0DF0C4
:1017D000000E0001786F000E796F8DEC0DF0000E99
:1017E000306E12000001786F010E0001796F24B293
:1017F000FCEF0BF0FEEF0BF011EF0CF02482000E6B
:10180000796F7851D8B407EF0CF009EF0CF00DEFB9
:101810000CF0010E226E0FEF0CF0020E226ED9ECCE
:101820000DF000017951120020EE02F03A50D92655
:101830003B50DA22DECF31F0DDCF32F03AC0D9FFB3
:101840003BC0DAFFDECF33F0DDCF34F0EEEC0CF04E
:10185000000E366E000E376E000E386E000E396EBA
:101860003BEC0DF0020E1200000E8D6E000E8C6E21
:10187000000E896E000E8A6E000E8B6E070E966E3D
:1018800092689368BF0E946E95687E681F0E7F6E97
:10189000000E7C6EF18E1200010E0001786F24B2F2
:1018A00054EF0CF056EF0CF060EF0CF024941D6830
:1018B000DFEC0DF0DBEC0DF0DDEC0DF023C078F08B
:1018C0000001785112003AC031F03BC032F0000EF6
:1018D000346E010E336EEEEC0CF0000E366E000E20
:1018E000376E000E386E000E396E3BEC0DF0040EB4
:1018F00012003AC031F03BC032F0000E346E020EDE
:10190000336EEEEC0CF0000E366E000E376E000EED
:10191000386E000E396E3BEC0DF0020E12003AC02C
:1019200031F03BC032F0000E346E010E336EEEEC3F
:101930000CF0000E366E000E376E000E386E000E84
:10194000396E3BEC0DF0020E12003AC031F03BC094
:1019500032F0000E346E020E336EEEEC0CF0000E20
:10196000366E000E376E000E386E000E396E3BEC90
:101970000DF0040E120000EE60F0180EEE6AE8069C
:10198000FDE100EE01F0300EEE6AE806FDE14A905E
:101990004A9200011DEF08F024A6D1EF0CF0D3EF1E
:1019A0000CF0DCEF0CF078C01EF079C01FF07AC0AC
:1019B00020F07BC021F024961200C6BAE2EF0CF0B2
:1019C000E4EF0CF0EDEF0CF0800EC76E080EC66E63
:1019D000000EC56E270EC86EC68A120024A6F3EF4D
:1019E0000CF0F5EF0CF0FEEF0CF031C01EF032C041
:1019F0001FF033C020F034C021F024961200000103
:101A0000846F000E0001816F8451D1EC09F0000158
:101A1000856F855112000001786F9EA812EF0DF0BE
:101A200014EF0DF00DEF0DF078C0ADFF12000001C6
:101A3000856F84C081F000018551D1EC09F000016F
:101A4000866F865112007DC078F07EC079F07FC02D
:101A50007AF080C07BF0000E12EC0AF012007DC01C
:101A600078F07EC079F07FC07AF080C07BF0020E03
:101A700012EC0AF0120036C031F037C032F038C034
:101A800033F039C034F0000E8EEC0AF0120034EC62
:101A90000CF07EEC0DF0A6EC0DF05DEC0DF0D0EC52
:101AA0000BF012000001866F84C081F085C082F0C7
:101AB00000018651CBEC0AF01200800EC76E080EB2
:101AC000C66E000EC56E270EC86EC69A1200C5BC43
:101AD0006CEF0DF06FEF0DF0010E70EF0DF0000EDA
:101AE000120024801D500109CAEC0DF0050E1200F1
:101AF00024801D50CAEC0DF0030E1200300ED36E80
:101B0000000E9B6E120078C08EF079C08FF012002C
:101B100078C090F079C091F0120078C08CF079C054
:101B20008DF0120078C02BF079C02CF012002492B6
:101B3000000E236E0E0E12002490E7EC0DF0040E42
:101B400012002492000E236E0E0E1200D08EA2867A
:101B50009F861200000EF2EC0BF01200D4EC0DF098
:101B6000090E1200D4EC0DF00A0E1200D1EC0DF0AB
:101B7000050E1200EDEC0DF0000E1200EFEC0DF072
:101B8000010E1200EFEC0DF0020E1200EFEC0DF062
:101B9000010E1200316E31C0C9FF12003BEC0BF098
:101BA0001200C59AC5881200C58AC58812009D8694
:101BB0001200C58012009D961200C69A12009E96D1
:101BC00012009E9612009E861200C9501200C58611
:101BD0001200050E1200010E1200C5841200C5820B
:021BE0001200F1
:020000040020DA
:08000000FFFFFFFFFFFFFFFF00
:020000040030CA
:0E000000FF021F1EFF8B85FF0FC00FE00F4099
:00000001FF
